{
  "contractName": "Token",
  "abi": [
    {
      "constant": true,
      "inputs": [],
      "name": "name",
      "outputs": [
        {
          "name": "",
          "type": "string"
        }
      ],
      "payable": false,
      "stateMutability": "view",
      "type": "function"
    },
    {
      "constant": false,
      "inputs": [
        {
          "name": "_spender",
          "type": "address"
        },
        {
          "name": "_value",
          "type": "uint256"
        }
      ],
      "name": "approve",
      "outputs": [
        {
          "name": "success",
          "type": "bool"
        }
      ],
      "payable": false,
      "stateMutability": "nonpayable",
      "type": "function"
    },
    {
      "constant": true,
      "inputs": [],
      "name": "totalSupply",
      "outputs": [
        {
          "name": "",
          "type": "uint256"
        }
      ],
      "payable": false,
      "stateMutability": "view",
      "type": "function"
    },
    {
      "constant": false,
      "inputs": [
        {
          "name": "_from",
          "type": "address"
        },
        {
          "name": "_to",
          "type": "address"
        },
        {
          "name": "_value",
          "type": "uint256"
        }
      ],
      "name": "transferFrom",
      "outputs": [
        {
          "name": "success",
          "type": "bool"
        }
      ],
      "payable": false,
      "stateMutability": "nonpayable",
      "type": "function"
    },
    {
      "constant": true,
      "inputs": [],
      "name": "decimals",
      "outputs": [
        {
          "name": "",
          "type": "uint8"
        }
      ],
      "payable": false,
      "stateMutability": "view",
      "type": "function"
    },
    {
      "constant": true,
      "inputs": [
        {
          "name": "_owner",
          "type": "address"
        }
      ],
      "name": "balanceOf",
      "outputs": [
        {
          "name": "balance",
          "type": "uint256"
        }
      ],
      "payable": false,
      "stateMutability": "view",
      "type": "function"
    },
    {
      "constant": true,
      "inputs": [],
      "name": "owner",
      "outputs": [
        {
          "name": "",
          "type": "address"
        }
      ],
      "payable": false,
      "stateMutability": "view",
      "type": "function"
    },
    {
      "constant": true,
      "inputs": [],
      "name": "symbol",
      "outputs": [
        {
          "name": "",
          "type": "string"
        }
      ],
      "payable": false,
      "stateMutability": "view",
      "type": "function"
    },
    {
      "constant": false,
      "inputs": [
        {
          "name": "_to",
          "type": "address"
        },
        {
          "name": "_value",
          "type": "uint256"
        }
      ],
      "name": "transfer",
      "outputs": [
        {
          "name": "success",
          "type": "bool"
        }
      ],
      "payable": false,
      "stateMutability": "nonpayable",
      "type": "function"
    },
    {
      "constant": false,
      "inputs": [],
      "name": "purchaseToken",
      "outputs": [
        {
          "name": "success",
          "type": "bool"
        }
      ],
      "payable": true,
      "stateMutability": "payable",
      "type": "function"
    },
    {
      "constant": true,
      "inputs": [
        {
          "name": "_owner",
          "type": "address"
        },
        {
          "name": "_spender",
          "type": "address"
        }
      ],
      "name": "allowance",
      "outputs": [
        {
          "name": "remaining",
          "type": "uint256"
        }
      ],
      "payable": false,
      "stateMutability": "view",
      "type": "function"
    },
    {
      "inputs": [],
      "payable": false,
      "stateMutability": "nonpayable",
      "type": "constructor"
    },
    {
      "payable": true,
      "stateMutability": "payable",
      "type": "fallback"
    },
    {
      "anonymous": false,
      "inputs": [
        {
          "indexed": true,
          "name": "_from",
          "type": "address"
        },
        {
          "indexed": true,
          "name": "_to",
          "type": "address"
        },
        {
          "indexed": false,
          "name": "_value",
          "type": "uint256"
        }
      ],
      "name": "Transfer",
      "type": "event"
    },
    {
      "anonymous": false,
      "inputs": [
        {
          "indexed": true,
          "name": "_owner",
          "type": "address"
        },
        {
          "indexed": true,
          "name": "_spender",
          "type": "address"
        },
        {
          "indexed": false,
          "name": "_value",
          "type": "uint256"
        }
      ],
      "name": "Approval",
      "type": "event"
    }
  ],
  "bytecode": "0x6060604052341561000f57600080fd5b6040805190810160405280600381526020017f544f4b00000000000000000000000000000000000000000000000000000000008152506000908051906020019061005a9291906101d9565b506040805190810160405280600581526020017f546f6b656e000000000000000000000000000000000000000000000000000000815250600190805190602001906100a69291906101d9565b506012600260006101000a81548160ff021916908360ff160217905550600260009054906101000a900460ff1660ff16600a0a633b9aca0002600381905550600354600560003373ffffffffffffffffffffffffffffffffffffffff1673ffffffffffffffffffffffffffffffffffffffff1681526020019081526020016000208190555033600460006101000a81548173ffffffffffffffffffffffffffffffffffffffff021916908373ffffffffffffffffffffffffffffffffffffffff1602179055503373ffffffffffffffffffffffffffffffffffffffff16600073ffffffffffffffffffffffffffffffffffffffff167fddf252ad1be2c89b69c2b068fc378daa952ba7f163c4a11628f55a4df523b3ef6003546040518082815260200191505060405180910390a361027e565b828054600181600116156101000203166002900490600052602060002090601f016020900481019282601f1061021a57805160ff1916838001178555610248565b82800160010185558215610248579182015b8281111561024757825182559160200191906001019061022c565b5b5090506102559190610259565b5090565b61027b91905b8082111561027757600081600090555060010161025f565b5090565b90565b610ebc806200028e6000396000f3006060604052600436106100af576000357c0100000000000000000000000000000000000000000000000000000000900463ffffffff16806306fdde03146100b4578063095ea7b31461014257806318160ddd1461019c57806323b872dd146101c5578063313ce5671461023e57806370a082311461026d5780638da5cb5b146102ba57806395d89b411461030f578063a9059cbb1461039d578063a95c4d62146103f7578063dd62ed3e14610419575b600080fd5b34156100bf57600080fd5b6100c7610485565b6040518080602001828103825283818151815260200191508051906020019080838360005b838110156101075780820151818401526020810190506100ec565b50505050905090810190601f1680156101345780820380516001836020036101000a031916815260200191505b509250505060405180910390f35b341561014d57600080fd5b610182600480803573ffffffffffffffffffffffffffffffffffffffff16906020019091908035906020019091905050610523565b604051808215151515815260200191505060405180910390f35b34156101a757600080fd5b6101af610615565b6040518082815260200191505060405180910390f35b34156101d057600080fd5b610224600480803573ffffffffffffffffffffffffffffffffffffffff1690602001909190803573ffffffffffffffffffffffffffffffffffffffff1690602001909190803590602001909190505061061b565b604051808215151515815260200191505060405180910390f35b341561024957600080fd5b6102516108c6565b604051808260ff1660ff16815260200191505060405180910390f35b341561027857600080fd5b6102a4600480803573ffffffffffffffffffffffffffffffffffffffff169060200190919050506108d9565b6040518082815260200191505060405180910390f35b34156102c557600080fd5b6102cd610922565b604051808273ffffffffffffffffffffffffffffffffffffffff1673ffffffffffffffffffffffffffffffffffffffff16815260200191505060405180910390f35b341561031a57600080fd5b610322610948565b6040518080602001828103825283818151815260200191508051906020019080838360005b83811015610362578082015181840152602081019050610347565b50505050905090810190601f16801561038f5780820380516001836020036101000a031916815260200191505b509250505060405180910390f35b34156103a857600080fd5b6103dd600480803573ffffffffffffffffffffffffffffffffffffffff169060200190919080359060200190919050506109e6565b604051808215151515815260200191505060405180910390f35b6103ff610b81565b604051808215151515815260200191505060405180910390f35b341561042457600080fd5b61046f600480803573ffffffffffffffffffffffffffffffffffffffff1690602001909190803573ffffffffffffffffffffffffffffffffffffffff16906020019091905050610d97565b6040518082815260200191505060405180910390f35b60018054600181600116156101000203166002900480601f01602080910402602001604051908101604052809291908181526020018280546001816001161561010002031660029004801561051b5780601f106104f05761010080835404028352916020019161051b565b820191906000526020600020905b8154815290600101906020018083116104fe57829003601f168201915b505050505081565b600081600660003373ffffffffffffffffffffffffffffffffffffffff1673ffffffffffffffffffffffffffffffffffffffff16815260200190815260200160002060008573ffffffffffffffffffffffffffffffffffffffff1673ffffffffffffffffffffffffffffffffffffffff168152602001908152602001600020819055508273ffffffffffffffffffffffffffffffffffffffff163373ffffffffffffffffffffffffffffffffffffffff167f8c5be1e5ebec7d5bd14f71427d1e84f3dd0314c0f7b2291e5b200ac8c7c3b925846040518082815260200191505060405180910390a36001905092915050565b60035481565b600061066f82600560008773ffffffffffffffffffffffffffffffffffffffff1673ffffffffffffffffffffffffffffffffffffffff16815260200190815260200160002054610e1e90919063ffffffff16565b600560008673ffffffffffffffffffffffffffffffffffffffff1673ffffffffffffffffffffffffffffffffffffffff1681526020019081526020016000208190555061074182600660008773ffffffffffffffffffffffffffffffffffffffff1673ffffffffffffffffffffffffffffffffffffffff16815260200190815260200160002060003373ffffffffffffffffffffffffffffffffffffffff1673ffffffffffffffffffffffffffffffffffffffff16815260200190815260200160002054610e1e90919063ffffffff16565b600660008673ffffffffffffffffffffffffffffffffffffffff1673ffffffffffffffffffffffffffffffffffffffff16815260200190815260200160002060003373ffffffffffffffffffffffffffffffffffffffff1673ffffffffffffffffffffffffffffffffffffffff1681526020019081526020016000208190555061081382600560008673ffffffffffffffffffffffffffffffffffffffff1673ffffffffffffffffffffffffffffffffffffffff16815260200190815260200160002054610e3790919063ffffffff16565b600560008573ffffffffffffffffffffffffffffffffffffffff1673ffffffffffffffffffffffffffffffffffffffff168152602001908152602001600020819055508273ffffffffffffffffffffffffffffffffffffffff168473ffffffffffffffffffffffffffffffffffffffff167fddf252ad1be2c89b69c2b068fc378daa952ba7f163c4a11628f55a4df523b3ef846040518082815260200191505060405180910390a3600190509392505050565b600260009054906101000a900460ff1681565b6000600560008373ffffffffffffffffffffffffffffffffffffffff1673ffffffffffffffffffffffffffffffffffffffff168152602001908152602001600020549050919050565b600460009054906101000a900473ffffffffffffffffffffffffffffffffffffffff1681565b60008054600181600116156101000203166002900480601f0160208091040260200160405190810160405280929190818152602001828054600181600116156101000203166002900480156109de5780601f106109b3576101008083540402835291602001916109de565b820191906000526020600020905b8154815290600101906020018083116109c157829003601f168201915b505050505081565b6000610a3a82600560003373ffffffffffffffffffffffffffffffffffffffff1673ffffffffffffffffffffffffffffffffffffffff16815260200190815260200160002054610e1e90919063ffffffff16565b600560003373ffffffffffffffffffffffffffffffffffffffff1673ffffffffffffffffffffffffffffffffffffffff16815260200190815260200160002081905550610acf82600560008673ffffffffffffffffffffffffffffffffffffffff1673ffffffffffffffffffffffffffffffffffffffff16815260200190815260200160002054610e3790919063ffffffff16565b600560008573ffffffffffffffffffffffffffffffffffffffff1673ffffffffffffffffffffffffffffffffffffffff168152602001908152602001600020819055508273ffffffffffffffffffffffffffffffffffffffff163373ffffffffffffffffffffffffffffffffffffffff167fddf252ad1be2c89b69c2b068fc378daa952ba7f163c4a11628f55a4df523b3ef846040518082815260200191505060405180910390a36001905092915050565b600080610b98606434610e5590919063ffffffff16565b9050610c0e8160056000600460009054906101000a900473ffffffffffffffffffffffffffffffffffffffff1673ffffffffffffffffffffffffffffffffffffffff1673ffffffffffffffffffffffffffffffffffffffff16815260200190815260200160002054610e1e90919063ffffffff16565b60056000600460009054906101000a900473ffffffffffffffffffffffffffffffffffffffff1673ffffffffffffffffffffffffffffffffffffffff1673ffffffffffffffffffffffffffffffffffffffff16815260200190815260200160002081905550610cc581600560003373ffffffffffffffffffffffffffffffffffffffff1673ffffffffffffffffffffffffffffffffffffffff16815260200190815260200160002054610e3790919063ffffffff16565b600560003373ffffffffffffffffffffffffffffffffffffffff1673ffffffffffffffffffffffffffffffffffffffff168152602001908152602001600020819055503373ffffffffffffffffffffffffffffffffffffffff16600460009054906101000a900473ffffffffffffffffffffffffffffffffffffffff1673ffffffffffffffffffffffffffffffffffffffff167fddf252ad1be2c89b69c2b068fc378daa952ba7f163c4a11628f55a4df523b3ef836040518082815260200191505060405180910390a3600191505090565b6000600660008473ffffffffffffffffffffffffffffffffffffffff1673ffffffffffffffffffffffffffffffffffffffff16815260200190815260200160002060008373ffffffffffffffffffffffffffffffffffffffff1673ffffffffffffffffffffffffffffffffffffffff16815260200190815260200160002054905092915050565b6000828211151515610e2c57fe5b818303905092915050565b6000808284019050838110151515610e4b57fe5b8091505092915050565b6000806000841415610e6a5760009150610e89565b8284029050828482811515610e7b57fe5b04141515610e8557fe5b8091505b50929150505600a165627a7a72305820d4234e15f2765a3162afc947a0cca0b58c9c507341dc63494c222914544a07ac0029",
  "source": "pragma solidity ^0.4.18;\n\nimport 'zeppelin-solidity/contracts/math/SafeMath.sol';\n\n/**\n * Token\n *\n * @title A fixed supply ERC20 token contract.\n * https://github.com/ethereum/EIPs/blob/master/EIPS/eip-20.md\n */\ncontract Token {\n    using SafeMath for uint;\n\n    event Transfer(\n        address indexed _from,\n        address indexed _to,\n        uint256 _value\n    );\n\n    event Approval(\n        address indexed _owner,\n        address indexed _spender,\n        uint256 _value\n    );\n\n    string public symbol;\n    string public name;\n    uint8 public decimals;\n    uint public totalSupply;\n    address public owner;\n\n    mapping(address => uint) balances;\n    mapping(address => mapping(address => uint)) allowed;\n\n    /**\n     * Constructs the Token contract and gives all of the supply to the address\n     *     that deployed it. The fixed supply is 1 billion tokens with up to 18\n     *     decimal places.\n     */\n    function Token() public {\n        symbol = 'TOK';\n        name = 'Token';\n        decimals = 18;\n        totalSupply = 1000000000 * 10**uint(decimals);\n        balances[msg.sender] = totalSupply;\n        owner = msg.sender;\n        Transfer(address(0), msg.sender, totalSupply);\n    }\n\n    /**\n     * @dev Fallback function\n     */\n    function() public payable { revert(); }\n\n    /**\n     * Gets the token balance of any wallet.\n     * @param _owner Wallet address of the returned token balance.\n     * @return The balance of tokens in the wallet.\n     */\n    function balanceOf(address _owner)\n        public\n        constant\n        returns (uint balance)\n    {\n        return balances[_owner];\n    }\n\n    /**\n     * Transfers tokens from the sender's wallet to the specified `_to` wallet.\n     * @param _to Address of the transfer's recipient.\n     * @param _value Number of tokens to transfer.\n     * @return True if the transfer succeeded, false if not.\n     */\n    function transfer(address _to, uint _value) public returns (bool success) {\n        balances[msg.sender] = balances[msg.sender].sub(_value);\n        balances[_to] = balances[_to].add(_value);\n        Transfer(msg.sender, _to, _value);\n        return true;\n    }\n\n    /**\n     * Transfer tokens from any wallet to the `_to` wallet. This only works if\n     *     the `_from` wallet has already allocated tokens for the caller keyset\n     *     using `approve`. From wallet must have sufficient balance to\n     *     transfer. Caller must have sufficient allowance to transfer.\n     * @param _from Wallet address that tokens are withdrawn from.\n     * @param _to Wallet address that tokens are deposited to.\n     * @param _value Number of tokens transacted.\n     * @return True if the transfer succeeded, false if not.\n     */\n    function transferFrom(address _from, address _to, uint _value)\n        public\n        returns (bool success)\n    {\n        balances[_from] = balances[_from].sub(_value);\n        allowed[_from][msg.sender] = allowed[_from][msg.sender].sub(_value);\n        balances[_to] = balances[_to].add(_value);\n        Transfer(_from, _to, _value);\n        return true;\n    }\n\n    /**\n     * Sender allows another wallet to `transferFrom` tokens from their wallet.\n     * @param _spender Address of `transferFrom` recipient.\n     * @param _value Number of tokens to `transferFrom`.\n     * @return True if the approval succeeded, false if not.\n     */\n    function approve(address _spender, uint _value)\n        public\n        returns (bool success)\n    {\n        allowed[msg.sender][_spender] = _value;\n        Approval(msg.sender, _spender, _value);\n        return true;\n    }\n\n    /**\n     * Gets the number of tokens that a `_owner` has approved for a _spender\n     *     to `transferFrom`.\n     * @param _owner Wallet address that tokens can be withdrawn from.\n     * @param _spender Wallet address that tokens can be deposited to.\n     * @return The number of tokens allowed to be transferred.\n     */\n    function allowance(address _owner, address _spender)\n        public\n        constant\n        returns (uint remaining)\n    {\n        return allowed[_owner][_spender];\n    }\n\n    function purchaseToken() public payable returns (bool success) {\n        uint weiToPurchase = msg.value.mul(100);\n        balances[owner] = balances[owner].sub(weiToPurchase);\n        balances[msg.sender] = balances[msg.sender].add(weiToPurchase);\n        Transfer(owner, msg.sender, weiToPurchase);\n        return true;\n    }\n}",
  "sourcePath": "/Users/adamb/projects/ethfun/talktests/MyToken/contracts/Token.sol",
  "compiler": {
    "name": "solc",
    "version": "0.4.18+commit.9cf6e910.Emscripten.clang"
  },
  "schemaVersion": "1.0.1",
  "updatedAt": "2018-02-21T19:30:07.873Z"
}